{
  "contractName": "AtomicSwapEtherToERC20",
  "abi": [
    {
      "anonymous": false,
      "inputs": [
        {
          "indexed": false,
          "name": "_swapID",
          "type": "bytes32"
        },
        {
          "indexed": false,
          "name": "_closeTrader",
          "type": "address"
        }
      ],
      "name": "Open",
      "type": "event"
    },
    {
      "anonymous": false,
      "inputs": [
        {
          "indexed": false,
          "name": "_swapID",
          "type": "bytes32"
        }
      ],
      "name": "Expire",
      "type": "event"
    },
    {
      "anonymous": false,
      "inputs": [
        {
          "indexed": false,
          "name": "_swapID",
          "type": "bytes32"
        }
      ],
      "name": "Close",
      "type": "event"
    },
    {
      "constant": false,
      "inputs": [
        {
          "name": "_swapID",
          "type": "bytes32"
        },
        {
          "name": "_erc20Value",
          "type": "uint256"
        },
        {
          "name": "_erc20Trader",
          "type": "address"
        },
        {
          "name": "_erc20ContractAddress",
          "type": "address"
        }
      ],
      "name": "open",
      "outputs": [],
      "payable": true,
      "stateMutability": "payable",
      "type": "function"
    },
    {
      "constant": false,
      "inputs": [
        {
          "name": "_swapID",
          "type": "bytes32"
        }
      ],
      "name": "close",
      "outputs": [],
      "payable": false,
      "stateMutability": "nonpayable",
      "type": "function"
    },
    {
      "constant": false,
      "inputs": [
        {
          "name": "_swapID",
          "type": "bytes32"
        }
      ],
      "name": "expire",
      "outputs": [],
      "payable": false,
      "stateMutability": "nonpayable",
      "type": "function"
    },
    {
      "constant": true,
      "inputs": [
        {
          "name": "_swapID",
          "type": "bytes32"
        }
      ],
      "name": "check",
      "outputs": [
        {
          "name": "value",
          "type": "uint256"
        },
        {
          "name": "erc20Value",
          "type": "uint256"
        },
        {
          "name": "erc20Trader",
          "type": "address"
        },
        {
          "name": "erc20ContractAddress",
          "type": "address"
        }
      ],
      "payable": false,
      "stateMutability": "view",
      "type": "function"
    }
  ],
  "bytecode": "0x6060604052341561000f57600080fd5b610d2b8061001e6000396000f300606060405260043610610062576000357c0100000000000000000000000000000000000000000000000000000000900463ffffffff168063399e07921461006757806339c79e0c1461010f5780636e79231514610136578063c644179814610199575b600080fd5b341561007257600080fd5b61008c6004808035600019169060200190919050506101c0565b604051808581526020018481526020018373ffffffffffffffffffffffffffffffffffffffff1673ffffffffffffffffffffffffffffffffffffffff1681526020018273ffffffffffffffffffffffffffffffffffffffff1673ffffffffffffffffffffffffffffffffffffffff16815260200194505050505060405180910390f35b341561011a57600080fd5b610134600480803560001916906020019091905050610330565b005b61019760048080356000191690602001909190803590602001909190803573ffffffffffffffffffffffffffffffffffffffff1690602001909190803573ffffffffffffffffffffffffffffffffffffffff169060200190919050506107b0565b005b34156101a457600080fd5b6101be600480803560001916906020019091905050610a30565b005b6000806000806101ce610c8d565b600080876000191660001916815260200190815260200160002060a06040519081016040529081600082015481526020016001820160009054906101000a900473ffffffffffffffffffffffffffffffffffffffff1673ffffffffffffffffffffffffffffffffffffffff1673ffffffffffffffffffffffffffffffffffffffff168152602001600282015481526020016003820160009054906101000a900473ffffffffffffffffffffffffffffffffffffffff1673ffffffffffffffffffffffffffffffffffffffff1673ffffffffffffffffffffffffffffffffffffffff1681526020016004820160009054906101000a900473ffffffffffffffffffffffffffffffffffffffff1673ffffffffffffffffffffffffffffffffffffffff1673ffffffffffffffffffffffffffffffffffffffff1681525050905080600001518160400151826060015183608001519450945094509450509193509193565b610338610c8d565b6000826001600381111561034857fe5b60016000836000191660001916815260200190815260200160002060009054906101000a900460ff16600381111561037c57fe5b14151561038857600080fd5b600080856000191660001916815260200190815260200160002060a06040519081016040529081600082015481526020016001820160009054906101000a900473ffffffffffffffffffffffffffffffffffffffff1673ffffffffffffffffffffffffffffffffffffffff1673ffffffffffffffffffffffffffffffffffffffff168152602001600282015481526020016003820160009054906101000a900473ffffffffffffffffffffffffffffffffffffffff1673ffffffffffffffffffffffffffffffffffffffff1673ffffffffffffffffffffffffffffffffffffffff1681526020016004820160009054906101000a900473ffffffffffffffffffffffffffffffffffffffff1673ffffffffffffffffffffffffffffffffffffffff1673ffffffffffffffffffffffffffffffffffffffff16815250509250600260016000866000191660001916815260200190815260200160002060006101000a81548160ff021916908360038111156104fe57fe5b0217905550826080015191508173ffffffffffffffffffffffffffffffffffffffff1663dd62ed3e8460600151306000604051602001526040518363ffffffff167c0100000000000000000000000000000000000000000000000000000000028152600401808373ffffffffffffffffffffffffffffffffffffffff1673ffffffffffffffffffffffffffffffffffffffff1681526020018273ffffffffffffffffffffffffffffffffffffffff1673ffffffffffffffffffffffffffffffffffffffff16815260200192505050602060405180830381600087803b15156105e557600080fd5b6102c65a03f115156105f657600080fd5b5050506040518051905083604001511115151561061257600080fd5b8173ffffffffffffffffffffffffffffffffffffffff166323b872dd8460600151856020015186604001516000604051602001526040518463ffffffff167c0100000000000000000000000000000000000000000000000000000000028152600401808473ffffffffffffffffffffffffffffffffffffffff1673ffffffffffffffffffffffffffffffffffffffff1681526020018373ffffffffffffffffffffffffffffffffffffffff1673ffffffffffffffffffffffffffffffffffffffff1681526020018281526020019350505050602060405180830381600087803b15156106fd57600080fd5b6102c65a03f1151561070e57600080fd5b50505060405180519050151561072357600080fd5b826060015173ffffffffffffffffffffffffffffffffffffffff166108fc84600001519081150290604051600060405180830381858888f19350505050151561076b57600080fd5b7fc9d8209586aca26a4f59cc70108e4cf2f637da8cb4133c78a3946bc50581ea288460405180826000191660001916815260200191505060405180910390a150505050565b6107b8610c8d565b84600060038111156107c657fe5b60016000836000191660001916815260200190815260200160002060009054906101000a900460ff1660038111156107fa57fe5b14151561080657600080fd5b60a0604051908101604052803481526020013373ffffffffffffffffffffffffffffffffffffffff1681526020018681526020018573ffffffffffffffffffffffffffffffffffffffff1681526020018473ffffffffffffffffffffffffffffffffffffffff1681525091508160008088600019166000191681526020019081526020016000206000820151816000015560208201518160010160006101000a81548173ffffffffffffffffffffffffffffffffffffffff021916908373ffffffffffffffffffffffffffffffffffffffff1602179055506040820151816002015560608201518160030160006101000a81548173ffffffffffffffffffffffffffffffffffffffff021916908373ffffffffffffffffffffffffffffffffffffffff16021790555060808201518160040160006101000a81548173ffffffffffffffffffffffffffffffffffffffff021916908373ffffffffffffffffffffffffffffffffffffffff1602179055509050506001806000886000191660001916815260200190815260200160002060006101000a81548160ff021916908360038111156109b057fe5b02179055507fb5894ff5a344c5160302de0b2027c5b55f4914e9d8e8c11b377b559e5ec789eb86856040518083600019166000191681526020018273ffffffffffffffffffffffffffffffffffffffff1673ffffffffffffffffffffffffffffffffffffffff1681526020019250505060405180910390a1505050505050565b610a38610c8d565b8160016003811115610a4657fe5b60016000836000191660001916815260200190815260200160002060009054906101000a900460ff166003811115610a7a57fe5b141515610a8657600080fd5b600080846000191660001916815260200190815260200160002060a06040519081016040529081600082015481526020016001820160009054906101000a900473ffffffffffffffffffffffffffffffffffffffff1673ffffffffffffffffffffffffffffffffffffffff1673ffffffffffffffffffffffffffffffffffffffff168152602001600282015481526020016003820160009054906101000a900473ffffffffffffffffffffffffffffffffffffffff1673ffffffffffffffffffffffffffffffffffffffff1673ffffffffffffffffffffffffffffffffffffffff1681526020016004820160009054906101000a900473ffffffffffffffffffffffffffffffffffffffff1673ffffffffffffffffffffffffffffffffffffffff1673ffffffffffffffffffffffffffffffffffffffff16815250509150600360016000856000191660001916815260200190815260200160002060006101000a81548160ff02191690836003811115610bfc57fe5b0217905550816020015173ffffffffffffffffffffffffffffffffffffffff166108fc83600001519081150290604051600060405180830381858888f193505050501515610c4957600080fd5b7fbddd9b693ea862fad6ecf78fd51c065be26fda94d1f3cad3a7d691453a38a7358360405180826000191660001916815260200191505060405180910390a1505050565b60a06040519081016040528060008152602001600073ffffffffffffffffffffffffffffffffffffffff16815260200160008152602001600073ffffffffffffffffffffffffffffffffffffffff168152602001600073ffffffffffffffffffffffffffffffffffffffff16815250905600a165627a7a72305820877ebe6aa62d69bd88d07a9e2c6ed13abb62b101572bd14da254fbea05c1ea390029",
  "source": "pragma solidity ^0.4.18;\r\n\r\nimport \"./ERC20.sol\";\r\n\r\ncontract AtomicSwapEtherToERC20 {\r\n\r\n  struct Swap {\r\n    uint256 value;\r\n    address ethTrader;\r\n    uint256 erc20Value;\r\n    address erc20Trader;\r\n    address erc20ContractAddress;\r\n  }\r\n\r\n  enum States {\r\n    INVALID,\r\n    OPEN,\r\n    CLOSED,\r\n    EXPIRED\r\n  }\r\n\r\n  mapping (bytes32 => Swap) private swaps;\r\n  mapping (bytes32 => States) private swapStates;\r\n\r\n  event Open(bytes32 _swapID, address _closeTrader);\r\n  event Expire(bytes32 _swapID);\r\n  event Close(bytes32 _swapID);\r\n\r\n  modifier onlyInvalidSwaps(bytes32 _swapID) {\r\n    require (swapStates[_swapID] == States.INVALID);\r\n    _;\r\n  }\r\n\r\n  modifier onlyOpenSwaps(bytes32 _swapID) {\r\n    require (swapStates[_swapID] == States.OPEN);\r\n    _;\r\n  }\r\n\r\n  function open(bytes32 _swapID, uint256 _erc20Value, address _erc20Trader, address _erc20ContractAddress) public onlyInvalidSwaps(_swapID) payable {\r\n    // Store the details of the swap.\r\n    Swap memory swap = Swap({\r\n      value: msg.value,\r\n      ethTrader: msg.sender,\r\n      erc20Value: _erc20Value,\r\n      erc20Trader: _erc20Trader,\r\n      erc20ContractAddress: _erc20ContractAddress\r\n    });\r\n    swaps[_swapID] = swap;\r\n    swapStates[_swapID] = States.OPEN;\r\n\r\n    Open(_swapID, _erc20Trader);\r\n  }\r\n\r\n  function close(bytes32 _swapID) public onlyOpenSwaps(_swapID) {\r\n    // Close the swap.\r\n    Swap memory swap = swaps[_swapID];\r\n    swapStates[_swapID] = States.CLOSED;\r\n\r\n    // Transfer the ERC20 funds from the ERC20 trader to the ETH trader.\r\n    ERC20 erc20Contract = ERC20(swap.erc20ContractAddress);\r\n    require(swap.erc20Value <= erc20Contract.allowance(swap.erc20Trader, address(this)));\r\n    require(erc20Contract.transferFrom(swap.erc20Trader, swap.ethTrader, swap.erc20Value));\r\n\r\n    // Transfer the ETH funds from this contract to the ERC20 trader.\r\n    swap.erc20Trader.transfer(swap.value);\r\n    \r\n    Close(_swapID);\r\n  }\r\n\r\n  function expire(bytes32 _swapID) public onlyOpenSwaps(_swapID) {\r\n    // Expire the swap.\r\n    Swap memory swap = swaps[_swapID];\r\n    swapStates[_swapID] = States.EXPIRED;\r\n\r\n    // Transfer the ETH value from this contract back to the ETH trader.\r\n    swap.ethTrader.transfer(swap.value);\r\n    Expire(_swapID);\r\n  }\r\n\r\n  function check(bytes32 _swapID) public view returns (uint256 value, uint256 erc20Value, address erc20Trader, address erc20ContractAddress) {\r\n    Swap memory swap = swaps[_swapID];\r\n    return  (swap.value, swap.erc20Value, swap.erc20Trader, swap.erc20ContractAddress);\r\n  }\r\n}\r\n",
  "sourcePath": "E:/Develop/blockchain/autoswap/marketplace/src/contracts/AtomicSwapEtherToERC20.sol",
  "compiler": {
    "name": "solc",
    "version": "0.4.18+commit.9cf6e910.Emscripten.clang"
  },
  "schemaVersion": "3.4.1",
  "updatedAt": "2021-07-18T17:12:33.897Z",
  "networkType": "ethereum",
  "devdoc": {
    "methods": {}
  },
  "userdoc": {
    "methods": {}
  }
}