{
  "contractName": "AtomicSwapERC20ToERC20",
  "abi": [
    {
      "anonymous": false,
      "inputs": [
        {
          "indexed": false,
          "name": "_swapID",
          "type": "bytes32"
        },
        {
          "indexed": false,
          "name": "_closeTrader",
          "type": "address"
        }
      ],
      "name": "Open",
      "type": "event"
    },
    {
      "anonymous": false,
      "inputs": [
        {
          "indexed": false,
          "name": "_swapID",
          "type": "bytes32"
        }
      ],
      "name": "Expire",
      "type": "event"
    },
    {
      "anonymous": false,
      "inputs": [
        {
          "indexed": false,
          "name": "_swapID",
          "type": "bytes32"
        }
      ],
      "name": "Close",
      "type": "event"
    },
    {
      "constant": false,
      "inputs": [
        {
          "name": "_swapID",
          "type": "bytes32"
        },
        {
          "name": "_openValue",
          "type": "uint256"
        },
        {
          "name": "_openContractAddress",
          "type": "address"
        },
        {
          "name": "_closeValue",
          "type": "uint256"
        },
        {
          "name": "_closeTrader",
          "type": "address"
        },
        {
          "name": "_closeContractAddress",
          "type": "address"
        }
      ],
      "name": "open",
      "outputs": [],
      "payable": false,
      "stateMutability": "nonpayable",
      "type": "function"
    },
    {
      "constant": false,
      "inputs": [
        {
          "name": "_swapID",
          "type": "bytes32"
        }
      ],
      "name": "close",
      "outputs": [],
      "payable": false,
      "stateMutability": "nonpayable",
      "type": "function"
    },
    {
      "constant": false,
      "inputs": [
        {
          "name": "_swapID",
          "type": "bytes32"
        }
      ],
      "name": "expire",
      "outputs": [],
      "payable": false,
      "stateMutability": "nonpayable",
      "type": "function"
    },
    {
      "constant": true,
      "inputs": [
        {
          "name": "_swapID",
          "type": "bytes32"
        }
      ],
      "name": "check",
      "outputs": [
        {
          "name": "openValue",
          "type": "uint256"
        },
        {
          "name": "openContractAddress",
          "type": "address"
        },
        {
          "name": "closeValue",
          "type": "uint256"
        },
        {
          "name": "closeTrader",
          "type": "address"
        },
        {
          "name": "closeContractAddress",
          "type": "address"
        }
      ],
      "payable": false,
      "stateMutability": "view",
      "type": "function"
    }
  ],
  "bytecode": "0x6060604052341561000f57600080fd5b6112608061001e6000396000f300606060405260043610610062576000357c0100000000000000000000000000000000000000000000000000000000900463ffffffff168063399e07921461006757806339c79e0c146101425780635454a43814610169578063c6441798146101ff575b600080fd5b341561007257600080fd5b61008c600480803560001916906020019091905050610226565b604051808681526020018573ffffffffffffffffffffffffffffffffffffffff1673ffffffffffffffffffffffffffffffffffffffff1681526020018481526020018373ffffffffffffffffffffffffffffffffffffffff1673ffffffffffffffffffffffffffffffffffffffff1681526020018273ffffffffffffffffffffffffffffffffffffffff1673ffffffffffffffffffffffffffffffffffffffff1681526020019550505050505060405180910390f35b341561014d57600080fd5b6101676004808035600019169060200190919050506103f7565b005b341561017457600080fd5b6101fd60048080356000191690602001909190803590602001909190803573ffffffffffffffffffffffffffffffffffffffff1690602001909190803590602001909190803573ffffffffffffffffffffffffffffffffffffffff1690602001909190803573ffffffffffffffffffffffffffffffffffffffff16906020019091905050610967565b005b341561020a57600080fd5b610224600480803560001916906020019091905050610e57565b005b60008060008060006102366111a5565b600080886000191660001916815260200190815260200160002060c06040519081016040529081600082015481526020016001820160009054906101000a900473ffffffffffffffffffffffffffffffffffffffff1673ffffffffffffffffffffffffffffffffffffffff1673ffffffffffffffffffffffffffffffffffffffff1681526020016002820160009054906101000a900473ffffffffffffffffffffffffffffffffffffffff1673ffffffffffffffffffffffffffffffffffffffff1673ffffffffffffffffffffffffffffffffffffffff168152602001600382015481526020016004820160009054906101000a900473ffffffffffffffffffffffffffffffffffffffff1673ffffffffffffffffffffffffffffffffffffffff1673ffffffffffffffffffffffffffffffffffffffff1681526020016005820160009054906101000a900473ffffffffffffffffffffffffffffffffffffffff1673ffffffffffffffffffffffffffffffffffffffff1673ffffffffffffffffffffffffffffffffffffffff1681525050905080600001518160400151826060015183608001518460a00151955095509550955095505091939590929450565b6103ff6111a5565b600080836001600381111561041057fe5b60016000836000191660001916815260200190815260200160002060009054906101000a900460ff16600381111561044457fe5b14151561045057600080fd5b600080866000191660001916815260200190815260200160002060c06040519081016040529081600082015481526020016001820160009054906101000a900473ffffffffffffffffffffffffffffffffffffffff1673ffffffffffffffffffffffffffffffffffffffff1673ffffffffffffffffffffffffffffffffffffffff1681526020016002820160009054906101000a900473ffffffffffffffffffffffffffffffffffffffff1673ffffffffffffffffffffffffffffffffffffffff1673ffffffffffffffffffffffffffffffffffffffff168152602001600382015481526020016004820160009054906101000a900473ffffffffffffffffffffffffffffffffffffffff1673ffffffffffffffffffffffffffffffffffffffff1673ffffffffffffffffffffffffffffffffffffffff1681526020016005820160009054906101000a900473ffffffffffffffffffffffffffffffffffffffff1673ffffffffffffffffffffffffffffffffffffffff1673ffffffffffffffffffffffffffffffffffffffff16815250509350600260016000876000191660001916815260200190815260200160002060006101000a81548160ff0219169083600381111561061c57fe5b02179055508360a0015192508273ffffffffffffffffffffffffffffffffffffffff1663dd62ed3e8560800151306000604051602001526040518363ffffffff167c0100000000000000000000000000000000000000000000000000000000028152600401808373ffffffffffffffffffffffffffffffffffffffff1673ffffffffffffffffffffffffffffffffffffffff1681526020018273ffffffffffffffffffffffffffffffffffffffff1673ffffffffffffffffffffffffffffffffffffffff16815260200192505050602060405180830381600087803b151561070357600080fd5b6102c65a03f1151561071457600080fd5b5050506040518051905084606001511115151561073057600080fd5b8273ffffffffffffffffffffffffffffffffffffffff166323b872dd8560800151866020015187606001516000604051602001526040518463ffffffff167c0100000000000000000000000000000000000000000000000000000000028152600401808473ffffffffffffffffffffffffffffffffffffffff1673ffffffffffffffffffffffffffffffffffffffff1681526020018373ffffffffffffffffffffffffffffffffffffffff1673ffffffffffffffffffffffffffffffffffffffff1681526020018281526020019350505050602060405180830381600087803b151561081b57600080fd5b6102c65a03f1151561082c57600080fd5b50505060405180519050151561084157600080fd5b836040015191508173ffffffffffffffffffffffffffffffffffffffff1663a9059cbb856080015186600001516000604051602001526040518363ffffffff167c0100000000000000000000000000000000000000000000000000000000028152600401808373ffffffffffffffffffffffffffffffffffffffff1673ffffffffffffffffffffffffffffffffffffffff16815260200182815260200192505050602060405180830381600087803b15156108fb57600080fd5b6102c65a03f1151561090c57600080fd5b50505060405180519050151561092157600080fd5b7fc9d8209586aca26a4f59cc70108e4cf2f637da8cb4133c78a3946bc50581ea288560405180826000191660001916815260200191505060405180910390a15050505050565b60006109716111a5565b876000600381111561097f57fe5b60016000836000191660001916815260200190815260200160002060009054906101000a900460ff1660038111156109b357fe5b1415156109bf57600080fd5b8692508273ffffffffffffffffffffffffffffffffffffffff1663dd62ed3e33306000604051602001526040518363ffffffff167c0100000000000000000000000000000000000000000000000000000000028152600401808373ffffffffffffffffffffffffffffffffffffffff1673ffffffffffffffffffffffffffffffffffffffff1681526020018273ffffffffffffffffffffffffffffffffffffffff1673ffffffffffffffffffffffffffffffffffffffff16815260200192505050602060405180830381600087803b1515610a9957600080fd5b6102c65a03f11515610aaa57600080fd5b505050604051805190508811151515610ac257600080fd5b8273ffffffffffffffffffffffffffffffffffffffff166323b872dd33308b6000604051602001526040518463ffffffff167c0100000000000000000000000000000000000000000000000000000000028152600401808473ffffffffffffffffffffffffffffffffffffffff1673ffffffffffffffffffffffffffffffffffffffff1681526020018373ffffffffffffffffffffffffffffffffffffffff1673ffffffffffffffffffffffffffffffffffffffff1681526020018281526020019350505050602060405180830381600087803b1515610ba157600080fd5b6102c65a03f11515610bb257600080fd5b505050604051805190501515610bc757600080fd5b60c0604051908101604052808981526020013373ffffffffffffffffffffffffffffffffffffffff1681526020018873ffffffffffffffffffffffffffffffffffffffff1681526020018781526020018673ffffffffffffffffffffffffffffffffffffffff1681526020018573ffffffffffffffffffffffffffffffffffffffff168152509150816000808b600019166000191681526020019081526020016000206000820151816000015560208201518160010160006101000a81548173ffffffffffffffffffffffffffffffffffffffff021916908373ffffffffffffffffffffffffffffffffffffffff16021790555060408201518160020160006101000a81548173ffffffffffffffffffffffffffffffffffffffff021916908373ffffffffffffffffffffffffffffffffffffffff1602179055506060820151816003015560808201518160040160006101000a81548173ffffffffffffffffffffffffffffffffffffffff021916908373ffffffffffffffffffffffffffffffffffffffff16021790555060a08201518160050160006101000a81548173ffffffffffffffffffffffffffffffffffffffff021916908373ffffffffffffffffffffffffffffffffffffffff16021790555090505060018060008b6000191660001916815260200190815260200160002060006101000a81548160ff02191690836003811115610dd457fe5b02179055507fb5894ff5a344c5160302de0b2027c5b55f4914e9d8e8c11b377b559e5ec789eb89866040518083600019166000191681526020018273ffffffffffffffffffffffffffffffffffffffff1673ffffffffffffffffffffffffffffffffffffffff1681526020019250505060405180910390a1505050505050505050565b610e5f6111a5565b60008260016003811115610e6f57fe5b60016000836000191660001916815260200190815260200160002060009054906101000a900460ff166003811115610ea357fe5b141515610eaf57600080fd5b600080856000191660001916815260200190815260200160002060c06040519081016040529081600082015481526020016001820160009054906101000a900473ffffffffffffffffffffffffffffffffffffffff1673ffffffffffffffffffffffffffffffffffffffff1673ffffffffffffffffffffffffffffffffffffffff1681526020016002820160009054906101000a900473ffffffffffffffffffffffffffffffffffffffff1673ffffffffffffffffffffffffffffffffffffffff1673ffffffffffffffffffffffffffffffffffffffff168152602001600382015481526020016004820160009054906101000a900473ffffffffffffffffffffffffffffffffffffffff1673ffffffffffffffffffffffffffffffffffffffff1673ffffffffffffffffffffffffffffffffffffffff1681526020016005820160009054906101000a900473ffffffffffffffffffffffffffffffffffffffff1673ffffffffffffffffffffffffffffffffffffffff1673ffffffffffffffffffffffffffffffffffffffff16815250509250600360016000866000191660001916815260200190815260200160002060006101000a81548160ff0219169083600381111561107b57fe5b0217905550826040015191508173ffffffffffffffffffffffffffffffffffffffff1663a9059cbb846020015185600001516000604051602001526040518363ffffffff167c0100000000000000000000000000000000000000000000000000000000028152600401808373ffffffffffffffffffffffffffffffffffffffff1673ffffffffffffffffffffffffffffffffffffffff16815260200182815260200192505050602060405180830381600087803b151561113a57600080fd5b6102c65a03f1151561114b57600080fd5b50505060405180519050151561116057600080fd5b7fbddd9b693ea862fad6ecf78fd51c065be26fda94d1f3cad3a7d691453a38a7358460405180826000191660001916815260200191505060405180910390a150505050565b60c06040519081016040528060008152602001600073ffffffffffffffffffffffffffffffffffffffff168152602001600073ffffffffffffffffffffffffffffffffffffffff16815260200160008152602001600073ffffffffffffffffffffffffffffffffffffffff168152602001600073ffffffffffffffffffffffffffffffffffffffff16815250905600a165627a7a723058205ff05e63ebc6c82b821f649d7a155be81ff2d432c3b7db6106e6a88b3b83e1620029",
  "source": "pragma solidity ^0.4.18;\r\n\r\nimport \"./ERC20.sol\";\r\n\r\ncontract AtomicSwapERC20ToERC20 {\r\n\r\n  struct Swap {\r\n    uint256 openValue;\r\n    address openTrader;\r\n    address openContractAddress;\r\n    uint256 closeValue;\r\n    address closeTrader;\r\n    address closeContractAddress;\r\n  }\r\n\r\n  enum States {\r\n    INVALID,\r\n    OPEN,\r\n    CLOSED,\r\n    EXPIRED\r\n  }\r\n\r\n  mapping (bytes32 => Swap) private swaps;\r\n  mapping (bytes32 => States) private swapStates;\r\n\r\n  event Open(bytes32 _swapID, address _closeTrader);\r\n  event Expire(bytes32 _swapID);\r\n  event Close(bytes32 _swapID);\r\n\r\n  modifier onlyInvalidSwaps(bytes32 _swapID) {\r\n    require (swapStates[_swapID] == States.INVALID);\r\n    _;\r\n  }\r\n\r\n  modifier onlyOpenSwaps(bytes32 _swapID) {\r\n    require (swapStates[_swapID] == States.OPEN);\r\n    _;\r\n  }\r\n\r\n  function open(bytes32 _swapID, uint256 _openValue, address _openContractAddress, uint256 _closeValue, address _closeTrader, address _closeContractAddress) public onlyInvalidSwaps(_swapID) {\r\n    // Transfer value from the opening trader to this contract.\r\n    ERC20 openERC20Contract = ERC20(_openContractAddress);\r\n    require(_openValue <= openERC20Contract.allowance(msg.sender, address(this)));\r\n    require(openERC20Contract.transferFrom(msg.sender, address(this), _openValue));\r\n\r\n    // Store the details of the swap.\r\n    Swap memory swap = Swap({\r\n      openValue: _openValue,\r\n      openTrader: msg.sender,\r\n      openContractAddress: _openContractAddress,\r\n      closeValue: _closeValue,\r\n      closeTrader: _closeTrader,\r\n      closeContractAddress: _closeContractAddress\r\n    });\r\n    swaps[_swapID] = swap;\r\n    swapStates[_swapID] = States.OPEN;\r\n\r\n    Open(_swapID, _closeTrader);\r\n  }\r\n\r\n  function close(bytes32 _swapID) public onlyOpenSwaps(_swapID) {\r\n    // Close the swap.\r\n    Swap memory swap = swaps[_swapID];\r\n    swapStates[_swapID] = States.CLOSED;\r\n\r\n    // Transfer the closing funds from the closing trader to the opening trader.\r\n    ERC20 closeERC20Contract = ERC20(swap.closeContractAddress);\r\n    require(swap.closeValue <= closeERC20Contract.allowance(swap.closeTrader, address(this)));\r\n    require(closeERC20Contract.transferFrom(swap.closeTrader, swap.openTrader, swap.closeValue));\r\n\r\n    // Transfer the opening funds from this contract to the closing trader.\r\n    ERC20 openERC20Contract = ERC20(swap.openContractAddress);\r\n    require(openERC20Contract.transfer(swap.closeTrader, swap.openValue));\r\n\r\n    Close(_swapID);\r\n  }\r\n\r\n  function expire(bytes32 _swapID) public onlyOpenSwaps(_swapID) {\r\n    // Expire the swap.\r\n    Swap memory swap = swaps[_swapID];\r\n    swapStates[_swapID] = States.EXPIRED;\r\n\r\n    // Transfer opening value from this contract back to the opening trader.\r\n    ERC20 openERC20Contract = ERC20(swap.openContractAddress);\r\n    require(openERC20Contract.transfer(swap.openTrader, swap.openValue));\r\n\r\n    Expire(_swapID);\r\n  }\r\n\r\n  function check(bytes32 _swapID) public view returns (uint256 openValue, address openContractAddress, uint256 closeValue, address closeTrader, address closeContractAddress) {\r\n    Swap memory swap = swaps[_swapID];\r\n    return (swap.openValue, swap.openContractAddress, swap.closeValue, swap.closeTrader, swap.closeContractAddress);\r\n  }\r\n}",
  "sourcePath": "E:/Develop/blockchain/autoswap/marketplace/src/contracts/AtomicSwapERC20ToERC20.sol",
  "compiler": {
    "name": "solc",
    "version": "0.4.18+commit.9cf6e910.Emscripten.clang"
  },
  "schemaVersion": "3.4.1",
  "updatedAt": "2021-07-18T17:12:33.907Z",
  "networkType": "ethereum",
  "devdoc": {
    "methods": {}
  },
  "userdoc": {
    "methods": {}
  }
}